S01600006D746B33627370325F7261386D312E7372656310
S3150200000038340022452C0002452A0002552C0002F3
S31502000010552C0002552C0002552C0002552C0002CC
S31502000020000000000000000000000000552C000245
S31502000030552C000200000000552C0002552C00022F
S31502000040FF240002E11500026113000255150002A9
S31502000050C515000229180002B119000200000000AD
S315020000600000000000000000000000000000000088
S315020000700000000000000000000000000000000078
S315020000800000000000000000000000000000000068
S315020000900000000000000000000000000000000058
S315020000A00000000000000000000000000000000048
S315020000B00000000000000000000000000000000038
S315020000C00000000000000000000000000000000028
S315020000D00000000000000000000000000000000018
S315020000E00000000000000000000000000000000008
S315020000F000000000000000000000000000000000F8
S3150200010000000000000000000000000000000000E7
S3150200011000000000000000000000000000000000D7
S3150200012000000000000000000000000000000000C7
S3150200013000000000000000000000000000000000B7
S3150200014000000000000000000000000000000000A7
S315020001500000000000000000000000000000000097
S315020001600000000000000000000000000000000087
S315020001700000000000000000000000000000000077
S315020001800000000000000000000000000000000067
S315020001900000000000000000000000000000000057
S315020001A00000000000000000000000000000000047
S315020001B00000000000000000000000000000000037
S315020001C00348044B834202D0034B03B118477047DE
S315020001D0AC000022AC00002200000000064B0749DA
S315020001E0C91A891048BF0131491003D0044B0BB11B
S315020001F001481847704700BFAC000022AC0000223D
S315020002000000000010B5064C237843B9FFF7D8FF6B
S31502000210044B13B10448AFF300800123237010BDD1
S31502000220082C002200000000749E000208B5054B4F
S315020002301BB105490548AFF30080BDE80840FFF74A
S31502000240CDBF00BF000000000C2C0022749E0002ED
S3150200025080B500AF03F048FD00BF80BD80B582B017
S3150200026000AF0346FB71FB79022B03D10349044815
S3150200027000F074F800BF0837BD4680BDBC99000285
S31502000280242C002280B500AFFFF7E2FF00231846B8
S3150200029080BDFFFF80B485B000AF0023FB60EFF3A3
S315020002A010837B607B68FB600123BB60BB6883F3C2
S315020002B0108800BF0D4B1B68002B05D10C4B00228A
S315020002C01A750B4B40221A75084B1B680133074AF5
S315020002D01360FB683B603B6883F3108800BF00BF76
S315020002E01437BD465DF8047B704700BFF02C002230
S315020002F0000D404080B485B000AF0023FB60EFF3F1
S3150200030010837B607B68FB600123BB60BB6883F361
S31502000310108800BF0F4B1B68002B04D00D4B1B68C7
S31502000320013B0C4A13600B4B1B68002B05D10A4B91
S3150200033000221A75084B80221A75FB683B603B68DF
S3150200034083F3108800BF00BF1437BD465DF8047BF7
S31502000350704700BFF02C0022000D404080B584B0EB
S3150200036000AF786039607B68FB60FB68044A1A60FC
S31502000370386800F007F8002318461037BD4680BDDE
S3150200038054524F5080B584B000AF7860786800F060
S3150200039061F87B68BB60FFF77DFF0023FB8111E0FC
S315020003A0BB685A68FB89DB0013449888BB685A68A5
S315020003B0FB89DB0013441B68194600F00FF8FB8922
S315020003C00133FB81BB681B88FA899A42E8D3FFF79F
S315020003D091FF00BF1037BD4680BDFFFF80B483B0DA
S315020003E000AF03463960FB803B6803F48033002B81
S315020003F01CD01749FB881B0A9BB21A46FB88DBB244
S3150200040012011A4451F8223023F4803341F8223083
S315020004100F48FB881B0A9BB21946FB88DBB23A6877
S3150200042022F4803209010B4440F823200849FB8854
S315020004301B0A9BB21A46FB88DBB2120113443A68C6
S3150200044041F8232000BF0C37BD465DF8047B704798
S315020004500008404080B588B000AF7860594B7B6198
S31502000460594B3B610023FB619FE00023BB6195E092
S315020004707B685A68FB69DB0013449A885349BB6957
S3150200048031F813309A4240F086807B685A68FB69DD
S31502000490DB0013441B6803F0F853FB60FB68B3F1FF
S315020004A0807F03D0FB68B3F1106F39D17B6993F873
S315020004B04C3CDAB20121BB6901FA03F3DBB2134009
S315020004C0DBB2002B13D1012002F074FB7B6993F897
S315020004D04C3CDAB20121BB6901FA03F3DBB21343E6
S315020004E0DAB27B6983F84C2C012002F013FB3B69DC
S315020004F0BA69203213F81230C3F3C013DBB2002BF1
S3150200050049D13A69BB6903F1200112F8113043F06F
S31502000510800302F811300121C82002F0F9F93AE00D
S315020005207B6993F84C3CDAB20121BB6901FA03F309
S31502000530DBB21340DBB2002B15D0012002F03AFBEE
S315020005407B6993F84C3CDAB20121BB6901FA03F3E9
S31502000550DBB2DB43DBB21340DAB27B6983F84C2CA5
S31502000560012002F0D7FA3B69BA69203213F8123039
S31502000570C3F3C013DBB2002B0DD03A69BB6903F19A
S31502000580200112F8113023F0800302F81130012104
S31502000590C82002F0BDF9BB690133BB61BB69022BFE
S315020005A07FF666AFFB690133FB617B681B881A46DF
S315020005B0FB699342FFF459AF00BF00BF2037BD4627
S315020005C080BD00BF00E0014000202040889A000262
S315020005D080B483B000AF03463960FB7197F90730E8
S315020005E0002B0ADB3B68DAB20C4997F90730120195
S315020005F0D2B20B4483F800230AE03B68DAB2084918
S31502000600FB7903F00F03043B1201D2B20B441A76B4
S3150200061000BF0C37BD465DF8047B704700E100E081
S3150200062000ED00E080B483B000AFEFF303837B609C
S315020006307B683B603B88C3F308039BB2DBB2103B8B
S31502000640DBB25BB218460C37BD465DF8047B7047D9
S3150200065080B483B000AF03463960FB7197F9073067
S3150200066004493A6841F8232000BF0C37BD465DF8BD
S31502000670047B7047F42C002280B483B000AF03469B
S31502000680FB7197F90730044A52F8233018460C37A3
S31502000690BD465DF8047B7047F42C002280B483B01B
S315020006A000AF0346FB710C4997F9073003F5C652B2
S315020006B051F8223023F4803341F82230064A97F962
S315020006C0073003F5C65352F8233000BF0C37BD4638
S315020006D05DF8047B704700BF0060004080B584B0BF
S315020006E000AF0346FB7197F907301846FFF7D6FFAE
S315020006F0BFF35F8F00BF97F90730FB60FB6803F01B
S315020007001F02074997F907305B09012000FA02F236
S31502000710603341F8232000BF1037BD4680BD00BFBD
S3150200072000E100E080B584B000AF0346B9607A60AC
S31502000730FB7397F90F30B9681846FFF749FF97F927
S315020007400F3079681846FFF783FF00BF1037BD46A2
S3150200075080BDFFFF80B485B000AF0346FB7197F9F9
S315020007600730FB60FB6803F01F020749FB685B0961
S31502000770012000FA02F241F8232000BF1437BD46D9
S315020007805DF8047B704700BF00E100E080B582B0EF
S3150200079000AF0346FB7197F907301846FFF79EFF35
S315020007A097F907301846FFF7D5FF00BF0837BD4651
S315020007B080BDFFFF80B485B000AF0346FB7197F999
S315020007C00730FB60FB6803F01F020B4997F90730FD
S315020007D05B09012000FA02F2203341F82320BFF31D
S315020007E04F8F00BFBFF36F8F00BF00BF1437BD46E8
S315020007F05DF8047B704700BF00E100E080B584B07D
S3150200080000AF0346B9607A60FB7397F90F307A68D6
S31502000810B9681846FFF786FF97F90F301846FFF7B3
S31502000820B5FF00BF1037BD4680BDFFFF80B588B05B
S3150200083000AF786039607B68FB6160220021F8694D
S3150200084008F008FFFB69254A1A60FB693A68DA650F
S315020008500023BB61EFF31083FB60FB68BB610123DE
S315020008603B613B6983F3108800BF1D4B5A683B68A6
S315020008701B68C3F10403012101FA03F3DB431849A0
S3150200088013404B60164B5B680121962002F040F83C
S31502000890BB697B617B6983F3108800BFFB69114AE0
S315020008A05A60FB695B6801221A61FB695A685369DF
S315020008B023F000435361FB695B6801221A62FB69FC
S315020008C05B681B6A002BFAD1FB695B6800221A601F
S315020008D0002318462037BD4680BD00BF433349007A
S315020008E00030204000F0354080B58EB000AF786011
S315020008F07B68FB62FB6ADB6D1B69BB624FF4C0233C
S315020009007B630C4B3B63FB6ADB6D1B79002B13D1BC
S31502000910FB6A01229A603B6B43F004033B63FB6A6A
S315020009205B68BA6A12685A67FB6A5B68BA6A526897
S315020009309A6710E012001000FB6A88229A607B6BAD
S3150200094043F080737B63FB6A5B6800225A67FB6A2B
S315020009505B6800229A67FB6A5B687A6BC3F8902130
S31502000960FB6A5B680022C3F89421FB6A5B6800227B
S31502000970C3F8C021FB6A5B684FF480625A63FB6A64
S315020009805B68A74AC3F8D421FB6A5B68A54AC3F829
S31502000990E421FB6A5B684FF480629A63FB6A5B68D8
S315020009A0A14AC3F8D821FB6A5B683A6BC3F8E8210F
S315020009B0BB6A1B7B03F00103DBB2FA6A5268002BA7
S315020009C00CBF01230023D9B2536961F30823536193
S315020009D0BB6A1B7BC3F34003DBB27B62BB6A1B7B36
S315020009E0C3F38003DBB25B007A6A13437B62BB6AA2
S315020009F01B7BC3F3C003DBB2DB007A6A13437B6261
S31502000A00FB6A5B687A6A9A65BB6A1B7AC3F3000360
S31502000A10DBB21B073B62BB6A1B7AC3F34003DBB242
S31502000A205B073A6A13433B62BB6A1B7AC3F38003D2
S31502000A30DBB29B073A6A13433B62BB6A1B7AC3F378
S31502000A40C003DBB2DB073A6A13433B62BB6A5B89CC
S31502000A501A463B6A13433B62FB6A5B683A6AC3F80F
S31502000A60B020FB6A5B68BA6A1269DA67FB6A5B687E
S31502000A70BA6A5269C3F88020FB6A5B68BA6A9269ED
S31502000A80C3F88420BB6A1B7F83F00103DBB2002B11
S31502000A9004D0FB6A5B680022C3F89020BB6A93F815
S31502000AA02030FB61BB6A93F821305B00FA6913437D
S31502000AB0FB61BB6A93F82230DB00FA691343FB61E0
S31502000AC0BB6A93F82A30BB61BB6A93F82B30DB0012
S31502000AD0BA691343BB61BB6A1B6B7B61BB6A93F842
S31502000AE02C30DB077A6913437B61BB6A93F8343097
S31502000AF01B029BB23B61BB6A93F835301B0403F4BD
S31502000B007F033A6913433B61BB6ADB8CFB60BB6ABA
S31502000B1093F828301B04FA681343FB60FB6A5B6890
S31502000B20FA69C3F85023BB6A93F823301946FB6A65
S31502000B305B6801228A40C3F85423BB6A9A8CFB6A1B
S31502000B405B68C3F85823FB6A5B68FA68C3F85C23E0
S31502000B50BB6A93F823301A46FB6A5B689201C3F8B4
S31502000B606423BB6A93F82920FB6A5B68C3F868238F
S31502000B70FB6A5B68BA69C3F86C23FB6A5B687A69CD
S31502000B80C3F87023FB6A5B683A69C3F87423FB6A8D
S31502000B905B685A69FB6A5B6842F000425A61BB6A4B
S31502000BA093F93800BB6A93F83E30FA6A1946FFF7A2
S31502000BB025FEBB6A93F93900BB6A93F83E30FA6A9E
S31502000BC01946FFF71BFEBB6A93F93A00BB6A93F814
S31502000BD03E30FA6A1946FFF711FEBB6A93F93B00EB
S31502000BE0BB6A93F83E30FA6A1946FFF707FEBB6AFC
S31502000BF093F93C00BB6A93F83E30FA6A1946FFF74E
S31502000C00FDFDBB6A93F93D00BB6A93F83F30FA6A71
S31502000C101946FFF7F3FD002318463837BD4680BD57
S31502000C20170111003F0210000400100080B588B0C1
S31502000C3000AF786039607B68FB61FB69DB6D1B790D
S31502000C40002B0CD13B685B781B04FB60FB6843F00E
S31502000C500043FB60FB695B68FA689A615FE03B6888
S31502000C601B7A23F03F03DBB2402B01D1062357E068
S31502000C703B681B78BB613B685B78184600F0CBF992
S31502000C8003461B0403F4FE03BA691343BB613B68C4
S31502000C901B7AC3F38003DBB21B0303F48053BA69E6
S31502000CA01343BB61FB695A68536E43F48033536640
S31502000CB0FB695B68BA69C3F8B0223B685B7A7B6101
S31502000CC03B681B7A1B027A6913437B61FB695B688B
S31502000CD07A69C3F820233B6802333B613B690433DC
S31502000CE01B781B023A69053212781A43FB695B6864
S31502000CF0C3F824233B691B781A063B6901331B7828
S31502000D001B041A433B6902331B781B0213433A69DD
S31502000D10033212781A43FB695B68C3F8282300235F
S31502000D2018462037BD4680BD80B588B000AFF86052
S31502000D30B9607A60FB687B617B681B7983F001038B
S31502000D40DBB2002B01D106235CE00023FB6100230A
S31502000D50BB61BB68202B05D17B695B6803F52873F1
S31502000D60FB6130E002233B617B695B6803F5097234
S31502000D70BB68396901FB03F39B001344FB617B6883
S31502000D805B791B0303F48053BA691343BB617B6827
S31502000D90DB7883F00103DBB2002B02D04FF4005361
S31502000DA000E00023BA691343BB617B681B7983F0B9
S31502000DB00103DBB2002B02D04FF4804300E0002394
S31502000DC0BA691343BB617B681B7803F07F03BA6978
S31502000DD01343BB617B685B78184600F01CF9034637
S31502000DE01B0403F47F03BA691343BB617B689B78D8
S31502000DF0002B03D1BB6943F00043BB61FB69BA69AF
S31502000E001A60002318462037BD4680BD80B487B0DD
S31502000E1000AFF860B9607A60FB687B617B69BA688B
S31502000E201A617B68DAB27B691A75002318461C3789
S31502000E30BD465DF8047B704780B588B000AFF860A8
S31502000E40B9607A60FB70FB687B617B699B68882B63
S31502000E5008D17B695B685B6A03F01003002B07D03D
S31502000E6008237CE07B699B68012B01D0082376E08E
S31502000E707B690022DA627B697A681A637B69BA68DF
S31502000E809A627B692833184600F01FFA02467B698C
S31502000E901A627B699B68882B12D17B699B6A002B3D
S31502000EA008D07B695B6808221A627B695B681B6AE9
S31502000EB0002BFAD17B695B687A681204C3F8C020FA
S31502000EC07B68042B03D87B699B68882B0DD17869D4
S31502000ED000F0B3F97B68402B07D97B695A68D2F8D0
S31502000EE0E83143F00103C2F8E8317B699B68012BC4
S31502000EF034D17B6908229A607B6918697B691B7DFC
S31502000F001A46FB78002100F0B5F8F8617B68042BDD
S31502000F100FD8FB6943F00103FB617B68DB05FA69C5
S31502000F201343FB617B691B6ABB617B697A68DA6280
S31502000F3002E07B681B04BB617B695B68FA69C3F8E4
S31502000F4050217B695B68BA69C3F850217B695A688C
S31502000F50D2F8E03123F00803C2F8E0310023184644
S31502000F602037BD4680BD90B587B000AFF860B96046
S31502000F707A60FB70FB687B617B699B68882B05D076
S31502000F807B699B68012B01D0082340E07B69DB6DFE
S31502000F901B693B613B6993F939301846FFF70AFC36
S31502000FA07B6900229A637B697A68DA637B69BA682D
S31502000FB05A637B69002283F840203B6993F93930F2
S31502000FC01846FFF7C7FB7B699B68012B1ED17B691D
S31502000FD009229A607B6918697B691B7D1A467B69BF
S31502000FE05C68FB78012100F045F80346C4F85031ED
S31502000FF07B695B687A681204C3F850217B695A6878
S31502001000D2F8E03123F00803C2F8E0310023184693
S315020010101C37BD4690BD80B485B000AF0346FB7158
S31502001020FB79FB60FB681B09FA685340FB60FB68AF
S315020010309B08FA685340FB60FB685B08FA685340FA
S31502001040FB60FB6803F00103FB60FB68002B0CBF2F
S3150200105001230023DBB2FB60FB68DBB2DB01DAB201
S31502001060FB791343DBB218461437BD465DF8047BA1
S315020010707047FFFF80B487B000AFF8607A601A4607
S315020010800B46FB721346BB7200237B61FB7A002B75
S3150200109004D07B6943F048037B6103E07B6943F03C
S315020010A040037B61FB681A04144B13407A691343AD
S315020010B07B617B689B0603F0E0537A6913437B618D
S315020010C0FB7A5B077A6913437B617B6943F0804352
S315020010D07B61BB7A83F00103DBB2002B02D04FF0B7
S315020010E0004300E000237A6913437B617B6918465B
S315020010F01C37BD465DF8047B704700BF0000FF0148
S3150200110080B586B002AF786039603B68FB601EE04E
S315020011107B685B68D3F85831BB607B685A68D2F843
S31502001120E03123F00203C2F8E0317B6803F13401B7
S31502001130FB6803220092BA68786800F010F8FB6830
S31502001140043BFB607B685B6D1A1D7B685A65FB6816
S31502001150002BDDDC00BF00BF1037BD4680BD90B559
S315020011608DB000AFF860B9607A603B600023FB6225
S3150200117039E0BB685A68BB689B689A4221D3BB6850
S315020011801B7B002B37D107F1140300221A605A6029
S315020011909A60DA601A615A6197F840303B75FB68CB
S315020011A0DB6DDB68BB62BB6801221A73FB68DB6D11
S315020011B09B6807F1140210469847BB681B7B002BFD
S315020011C01BD1FB6ADB007A6822FA03F4BB681A6851
S315020011D0BB685B68581CB96848601344E2B21A706F
S315020011E0FB6A0133FB62FB6A032B07D8FA6A3B6888
S315020011F09A42BED302E000BF00E000BF3437BD46CC
S3150200120090BD80B485B000AF786039600023FB6082
S315020012107B685B68D3F89833C3F30723DBB2002BF2
S3150200122004D07B685B6D3A68D31AFB60FB6818468C
S315020012301437BD465DF8047B704780B584B000AFB5
S3150200124078600023FB737B685B687A68126AC3F86E
S3150200125058217B68DA6A7B681B6B9A4214D37B68D7
S315020012605A68D2F8E83123F00103C2F8E8317B6804
S31502001270DB6D1B69BB60BB6893F93A301846FFF712
S315020012802DFA0123FB7307E07B682833184600F02A
S315020012901CF802467B681A627B685B68D3F898334F
S315020012A0DBB2002B05D0FB7B83F00103DBB2002B04
S315020012B0C9D17B685A68D2F8E03123F00103C2F83B
S315020012C0E03100BF1037BD4680BD80B487B000AFA5
S315020012D0786000237B617B685B683B617B681B6887
S315020012E0BB600023FB6011E03B695A1C3A61BA6895
S315020012F013441B781A46FB68DB0002FA03F31A460C
S315020013007B6913437B61FB680133FB60FB68032B3C
S3150200131004D87B689B683A699A42E5D37B683A6946
S315020013205A607B6918461C37BD465DF8047B7047D8
S3150200133080B582B000AFFFF775F90346FB7197F9E6
S3150200134007301846FFF798F9386097F907301846BC
S31502001350FFF7A4F93B6818460837BD4680BDFFFF74
S3150200136080B59EB000AFFFF7E3FF78677B6F5B68DF
S31502001370D3F854313B677B6F5A68D2F8E03123F0D9
S315020013801003C2F8E0313B6F9BB2FB663B6F1B0F4B
S31502001390BB66002387F867307B6F9B683B663B6EB4
S315020013A0DBB203F07F03DBB287F83C30BB6E3B64F3
S315020013B07B6FDB6DDB683B657B6F01229A603B6E60
S315020013C0092B17D83B6E042BC0F083803B6E043B7F
S315020013D0052B7ED801A252F823F000BFB5140002F5
S315020013E0D3140002FD1300020D1400020D140002B4
S315020013F0491400023B6E872B26D06AE07B6F34339A
S3150200140000221A605A609A60DA6063E07B6F1A6B98
S31502001410FB6ED31A7B647B6F283300221A605A60F4
S315020014209A607B6F5A68D2F8E83123F00103C2F85A
S31502001430E8317B6FDB6D1B69BB65BB6D93F93A3097
S315020014401846FFF74BF945E0F96E786FFFF7D9FEBC
S31502001450F865F96D786FFFF753FEFB6E7B647B6F61
S31502001460343300221A605A609A60DA607B6F1B7B03
S31502001470912B1BD17B6F5B685B6A03F00403002B25
S315020014800CD17B6F88229A607B6F5A68D2F89031B2
S31502001490012161F31F63C2F8903107E07B6F5A683E
S315020014A0D2F8E83143F00403C2F8E8317B6F002238
S315020014B01A730FE07B6FDA6CFB6ED31A7B647B6F59
S315020014C0443300221A605A609A60DA607B6F88227F
S315020014D09A6000BF7B6F00225A657B6F5B68D3F808
S315020014E0E0317B657B6D03F02003002B05D07B6F1B
S315020014F05A68536923F0005353617B6D03F40073FA
S31502001500002B03D197F86730002B0ED07B6F9B68B8
S31502001510882B04D10221786F00F0CFFA05E097F804
S3150200152067301946786F00F0ABFA7B6F5B68D3F8C9
S31502001530E0217B6F5B6822F40872C3F8E0217B6FBF
S31502001540DB6D9B6807F13C021046984700BF78376F
S31502001550BD4680BD80B588B000AFFFF7E9FEF861F1
S31502001560FB695B68D3F8E03103F01013002B0BD153
S31502001570FB695B68D3F89833C3F30723DBB29B009E
S315020015801946F869FFF7BCFDFB699B68062B15D166
S31502001590FB699B6B082B11D1FB6900229A6300231E
S315020015A03B71FB6918333B61FB69DB6DDB68BB6131
S315020015B0FB69DB6D9B683A1D1046984700BF2037D2
S315020015C0BD4680BD80B582B000AFFFF7B1FE786040
S315020015D07868FFF732FE00BF0837BD4680BDFFFFC1
S315020015E080B5A2B000AFFFF7A3FEF867FB6F5B689A
S315020015F0D3F88031BB67FB6F5A68D2F8E03123F427
S315020016008013C2F8E031BB6F9BB27B67BB6F1B0EC8
S3150200161003F007033B67FB6FDB6DDB683B653B6FE4
S315020016203B64022387F88730BB6F03F0C053002B5D
S315020016303ED1BB6F03F40003002B18D1796FF86F0C
S31502001640FFF7DFFDB865B96DF86FFFF759FD7B6FE0
S315020016507B64092387F83C30FB6F343300221A601F
S315020016605A609A60DA60012387F88730A7E07B6FB9
S315020016707B64082387F83C30FB6F283300221A600C
S315020016805A609A60002387F88730FB6FDB6D1B690F
S31502001690FB65FB6F5A68D2F8E83123F00103C2F802
S315020016A0E831FB6D93F93A301846FFF717F886E0F2
S315020016B0BB6F1B0C87F86F3097F86F30072B03D080
S315020016C097F86F30872B35D17B6F03339B087B6688
S315020016D00023C7F8803008E0FB6F5B68D3F8583107
S315020016E0D7F880300133C7F88030D7F880207B6E78
S315020016F09A42F1D3FB6F343300221A605A609A6021
S31502001700DA60062387F83C30FB6F5B68D3F8303328
S31502001710C3F3C073DBB2002B50D0FB6F5B68D3F808
S315020017203023404B13403B663B6E1B0CDBB287F803
S315020017304C3043E0796FF86FFFF763FDB866B96E18
S31502001740F86FFFF7DDFC97F86F30912B21D1FB6F15
S315020017505B685B6A03F00403002B12D0FB6F012265
S315020017609A60FB6F5A68D2F8903123F07F43C2F831
S315020017709031FB6F5A68D2F8E03123F00403C2F8C5
S31502001780E031FB6F5A68D2F8E83143F00403C2F83D
S31502001790E831FB6F9B6B002B06D0FB6F34330022C4
S315020017A01A605A609A60DA60072387F83C3097F825
S315020017B06F3087F84F307B6F7B6400E000BFFB6FB2
S315020017C000225A65FB6F5B68D3F8E0317B657B6D5F
S315020017D003F40873002B10D0FB6F5B68D3F8C03399
S315020017E0DBB2002B09D1FB6F9B68882B05D197F8DA
S315020017F087301946F86F00F060F9FB6F5B68D3F823
S31502001800E021FB6F5B6822F40872C3F8E021FB6FEC
S31502001810DB6D9B6807F13C021046984700BF88378C
S31502001820BD4680BD0000FF0380B596B002AFFFF74C
S315020018307FFD78647B6C9B68042B2FD17B6C5B6885
S315020018407A6C526AC3F87C217B6C5A68D2F8E03112
S3150200185023F00403C2F8E0317B6C9A6C7B6CDB6C80
S315020018609A4212D37B6C5A68D2F8E83123F0040309
S31502001870C2F8E8317B6CDB6D1B69FB62FB6A93F98C
S315020018803C301846FEF72AFF8EE07B6C443318463E
S31502001890FFF71BFD02467B6C5A6285E07B6C5B6838
S315020018A0D3F87C313B643B6CDBB2FB647B6C9A6D98
S315020018B0FB6C1A447B6C9A65FB6C03339B08FB63D7
S315020018C00023BB6414E07B6C5B68D3F87C313B631A
S315020018D07B6C03F1440102230093FB6C3A6B786C38
S315020018E0FFF73DFCFB6C043BFB64BB6C0133BB6442
S315020018F0BA6CFB6B9A42E6D37B6C5A68D2F8E0313B
S3150200190023F00403C2F8E0313B6C03F08073002B32
S315020019104AD03B6C5B0ADBB203F07F0387F83B30AD
S315020019203B6C1B0ADBB203F0010387F83A303B6CCF
S315020019309B0E03F027037B6307F1140300221A6050
S315020019405A609A60DA601A615A6101233B757B6BB1
S31502001950BB617B6C9B6DFB6197F83B3087F8263049
S315020019607B6CDB6DDB68BB6297F83B30022B03D1E5
S31502001970012387F8253006E097F83A30002B02D18A
S31502001980022387F825307B6C443300221A605A60A2
S315020019909A60DA607B6C00229A657B6CDB6D9B68D1
S315020019A007F114021046984700BF5037BD4680BD66
S315020019B080B58CB000AFFFF7BBFC78627B6ADB6D4B
S315020019C0DB68BB617B6A5B681B6B3B620023FB6265
S315020019D07B6A5B68D3F8D031FB610023BB623B6A4A
S315020019E003F48063002B11D00B233B717B6ADB6D02
S315020019F09B683A1D10469847FB6A43F48063FB6274
S31502001A007B6A5A68536943F080435361FB6903F466
S31502001A108013002B0BD00A233B717B6ADB6D9B681C
S31502001A203A1D10469847BB6A43F48013BB62FB69B2
S31502001A3003F00403002B0BD005233B717B6ADB6D9D
S31502001A409B683A1D10469847BB6A43F00403BB6283
S31502001A507B6A5B68196BFB6ADA437B6A5B680A40DE
S31502001A601A637B6A5B68D3F8D011BB6ADA437B6A76
S31502001A705B680A40C3F8D02100BF3037BD4680BD3F
S31502001A8080B483B000AF78600B46FB707B685B68FE
S31502001A901A221A627B685B681B6A03F01A03002B20
S31502001AA0F8D17B685A68536943F08043536100BF9B
S31502001AB00C37BD465DF8047B704780B483B000AF37
S31502001AC078600B46FB70FB78022B10D0022B13DCDE
S31502001AD0002B02D0012B05D00EE07B685B68082242
S31502001AE01A620AE07B685B6810221A6205E07B686C
S31502001AF05B6802221A6200E000BF7B685B681B6AB1
S31502001B00002BFAD17B685A68536943F080435361CC
S31502001B1000BF0C37BD465DF8047B704780B483B0C6
S31502001B2000AF03463960FB7197F90730002B0ADBD9
S31502001B303B68DAB20C4997F907301201D2B20B446C
S31502001B4083F800230AE03B68DAB20849FB7903F01E
S31502001B500F03043B1201D2B20B441A7600BF0C37B4
S31502001B60BD465DF8047B704700E100E000ED00E051
S31502001B7080B483B000AFEFF303837B607B683B6086
S31502001B803B88C3F308039BB2DBB2103BDBB25BB20A
S31502001B9018460C37BD465DF8047B704780B487B0A3
S31502001BA000AF0346FB712B4B1B6A7B61FB797A699B
S31502001BB022FA03F303F00F033B61FB79202B02D1D8
S31502001BC0254B1B683FE0234B93F82430DBB203F02E
S31502001BD00F03FB60FA683B69134303F00803002B0B
S31502001BE02AD0FB6803F00803002B06D0FB6803F03B
S31502001BF00703032202FA03F303E00122FB6802FA57
S31502001C0003F3FB603B6903F00803002B06D03B6934
S31502001C1003F00703032202FA03F303E001223B69FE
S31502001C2002FA03F33B610C4B1B68FA6803FB02F2F0
S31502001C303B69B2FBF3F306E0074B1A68FB689A406E
S31502001C403B6922FA03F318461C37BD465DF8047B4E
S31502001C50704700BF00E001407C2E002280B483B0B2
S31502001C6000AF03463960FB7197F9073004493A68B9
S31502001C7041F8232000BF0C37BD465DF8047B704750
S31502001C80F42C002280B483B000AF0346FB7197F9AF
S31502001C900730044A52F8233018460C37BD465DF821
S31502001CA0047B7047F42C002280B483B000AF034655
S31502001CB0FB710C4997F9073003F5C65251F82230E9
S31502001CC023F4803341F82230064A97F9073003F5A8
S31502001CD0C65352F8233000BF0C37BD465DF8047B6D
S31502001CE0704700BF0060004080B584B000AF034675
S31502001CF0FB7197F907301846FFF7D6FFBFF35F8FE0
S31502001D0000BF97F90730FB60FB6803F01F02074923
S31502001D1097F907305B09012000FA02F2603341F8B5
S31502001D20232000BF1037BD4680BD00BF00E100E0A2
S31502001D3080B584B000AF0346B9607A60FB7397F949
S31502001D400F30B9681846FFF7E9FE97F90F30796840
S31502001D501846FFF783FF00BF1037BD4680BDFFFF61
S31502001D6080B485B000AF0346FB7197F90730FB607C
S31502001D70FB6803F01F020749FB685B09012000FAB2
S31502001D8002F241F8232000BF1437BD465DF8047BFA
S31502001D90704700BF00E100E080B582B000AF0346A5
S31502001DA0FB7197F907301846FFF79EFF97F9073040
S31502001DB01846FFF7D5FF00BF0837BD4680BD80B580
S31502001DC084B000AF0346B9607A60FB7397F90F30AF
S31502001DD07A68B9681846FFF7ABFF97F90F301846CD
S31502001DE0FFF7DAFF00BF1037BD4680BD80B586B06B
S31502001DF000AF786039607B687B613B685B693B61F9
S31502001E007B693A685A603B68DA687B699A613B6823
S31502001E101A697B691A627B690022DA614FF40073E0
S31502001E20FB603B681B881A46FB6803FB02F21C4BED
S31502001E3013441A467B691A603968786900F092F889
S31502001E403B6893F906003B685B7A7A69194600F0AB
S31502001E50DBFA3B6893F907003B689B7A7A69194675
S31502001E6000F0D2FA3B6993F906003B691B7A7A695C
S31502001E70194600F0C9FA3B6993F907003B695B7A98
S31502001E807A69194600F0C0FA7B6900221A617B69F9
S31502001E90044A9A60002318461837BD4680BD00BF23
S31502001EA0002033404344415280B586B000AF78608B
S31502001EB039603B687B617B683B610023FB60796923
S31502001EC0386900F0A9F97B691A683B691A61FB68EF
S31502001ED018461837BD4680BD80B487B000AFF8609B
S31502001EE0B9607A603B60FB687B617B69BA689A611C
S31502001EF07B697A681A627B693A68DA610023184656
S31502001F001C37BD465DF8047B704780B485B000AFD0
S31502001F1078607B68FB60FB681B68FA68928A1A80A5
S31502001F20002318461437BD465DF8047B704780B41B
S31502001F3087B000AFF8600B467A60FB72FB687B6184
S31502001F407B691B6897F90B20103233F812309AB26C
S31502001F507B681A80002318461C37BD465DF8047B51
S31502001F607047FFFF80B58CB000AF786039603B6880
S31502001F705B693B623B689B785B03FB62FB6A43F0EF
S31502001F804003FB623B685B791B02FA6A1343FB62FE
S31502001F903B6ADB78002B04D0FB6A43F42073FB62B6
S31502001FA007E03B685B79002B03D1FB6A43F40043ED
S31502001FB0FB62FB6A9AB27B689A820023BB623B6829
S31502001FC05B79022B06D13B6ADB781A46364B53F80D
S31502001FD02230BB620023FB613B68DB785B00FA6957
S31502001FE01343FB613B681B79DB03FA691343FB610D
S31502001FF03B6A5B785B01FA691343FB613B6A1B78B8
S31502002000BB6100237B61EFF310833B613B697B611C
S315020020100123FB60FB6883F3108800BF234BDA6859
S315020020203B681B88C3F11003012101FA03F3DB436A
S315020020301E491340CB601D4BDB680121962000F040
S3150200204067FC7B69BB60BB6883F3108800BFFB6AD1
S3150200205099B27B681A6847F6FF530B409BB213800E
S315020020607B681B68BA6A92B21A827B681B68FA6935
S3150200207092B2DA817B681B68BA69D2B21A730023FC
S3150200208087F827303B6A5B79012B02D1012387F857
S3150200209027307B681B6897F8272083F8D02000BF7B
S315020020A03037BD4680BD00BF909A00020030204006
S315020020B080B58AB000AF786039600023FB6007F113
S315020020C00C03184600F080F83B681A683B685B68A8
S315020020D013433B6200237B623B6A03F00053002BEF
S315020020E040D00023FB61EFF310833B613B69FB6148
S315020020F001237B617B6983F3108800BF304BDB6869
S315020021002F4A23F48003D3602D4BDB6801219620EE
S3150200211000F0FEFBFB69BB61BB6983F3108800BF5D
S31502002120284B90221A70FA687B681B68D2B283F831
S31502002130DE203B681B6803F00053002B04D07B6A49
S3150200214043F480737B6203E07B6A43F480637B62C1
S315020021503B689B6803F00053002B03D07B6A43F075
S3150200216001037B623B6A03F08043002B1ED0FA68B0
S315020021707B681B68D2B283F8DF203B681B6803F0DA
S315020021808043002B04D07B6A43F400737B6203E036
S315020021907B6A43F400637B623B689B6803F080437F
S315020021A0002B03D07B6A43F002037B627B681B68C9
S315020021B07A6A92B25A8200BF2837BD4680BD00BFF6
S315020021C0003020400050234080B584B000AF7860D4
S315020021D00420FFF7E3FCB860BB680D4AA2FB0323A9
S315020021E09B0941F2360202FB03F30A4AA2FB0323CE
S315020021F09B0C0133FB60FB68062B01D80723FB60AF
S315020022007B68FA681A6000BF1037BD4680BD00BF02
S31502002210D34D621083DE1B4380B58CB000AF78606D
S3150200222039603B681B6823F0C043BB627B685B680E
S315020022305B697B623B685B6823F0C0433B623B6839
S315020022409B6823F0C043FB617B681B68BA6A92B243
S315020022509A807B681B683A6A92B29A827B681B688C
S31502002260FA6992B21A81BB6A1A0C7B681B6892B22F
S31502002270DA803B6A1A0C7B681B6892B2DA82FB69C7
S315020022801A0C7B681B6892B25A8139687868FFF724
S315020022900FFF3B68DB7CBB613B689B7C1B0203F444
S315020022A0E063BA691343BB617B681B68BA6992B281
S315020022B0A3F866203B68DB687B610023FB857B69AC
S315020022C0002B66D07B691B89FB857B691B8903F41E
S315020022D00063002B41D07B681B687A691289A3F8D8
S315020022E090207B681B687A695289A3F89C207B68D8
S315020022F01B687A699289A3F89E207B691A687B68B3
S315020023001B6892B2A3F894207B691B681B011A0D05
S315020023107B681B6892B2A3F896207B691B685A0FEA
S315020023207B681B68D2B283F892207B695A687B6805
S315020023301B6892B2A3F898207B695B681B011A0D91
S315020023407B681B6892B2A3F89A207B695B685A0F76
S315020023507B681B68D2B283F893207B691B8903F4DE
S315020023600073002B15D07B69997C7B69DA7C7B68CC
S315020023701B680A43D2B283F8A6207B681B687A6977
S31502002380D289A3F8A8207B681B687A69128AA3F807
S31502002390AA207B681B68FA8DA3F890207B681B68CD
S315020023A03A68128AA3F880207B6ADB78002B22D057
S315020023B07B681B681B889BB23B613B6923F01F034A
S315020023C0BA6AFA60FA68002A01D1202203E0FA68A2
S315020023D0B2FA82F2D2B29B1A1F333B617B681B6848
S315020023E03A6992B21A807B689A8A3B699BB2134316
S315020023F09AB27B689A827B68024ADA6000BF3037FB
S31502002400BD4680BD4344415280B582B000AF03460B
S315020024103A60FB710B46BB7197F90730002B06DB5E
S31502002420B97997F907303A681846FFF7C8FC00BF32
S315020024300837BD4680BDB0B58CB000AF7860396054
S315020024407B68DB69FB62FB6A002B02D13B68FB629D
S3150200245013E0FB6A07F108041D460FCD0FC495E889
S315020024600F0084E80F00FA6A3B6814461D460FCD3A
S315020024700FC495E80F0084E80F007B689B69F86A31
S3150200248098477B68DB69002B0AD07B68DB691D46AF
S3150200249007F108040FCC0FC594E80F0085E80F007A
S315020024A000BF3037BD46B0BD80B58CB000AF034625
S315020024B0FB71FFF75DFB03461846FFF7E3FBF86285
S315020024C0FFF756FB03461846FFF7EEFBFB79BB7296
S315020024D0FB6A5B681B883B8100233B74FB6A1B6AB1
S315020024E0FB60FB6A9B69002B05D007F108031946BE
S315020024F0F86AFFF7A0FF00BF3037BD4680BD80B542
S3150200250000AF0020FFF7D0FF00BF80BD80B400AF50
S31502002510074B01229A80064B9B889BB2002BFAD16D
S31502002520034B01221A8000BFBD465DF8047B70474B
S3150200253000C1014080B483B000AF234B93F826302C
S31502002540DBB27B60204B93F82430DBB203F00F033F
S31502002550FB70FB78BB70BB78082B0AD11B4A7B68E1
S3150200256052F823301A4AA2FB03235B08194A136066
S3150200257024E0BB78092B0AD1144A7B6852F823302F
S31502002580134AA2FB03239B08124A136016E0BB7888
S315020025900A2B0AD10D4A7B6852F823300C4AA2FB59
S315020025A00323DB080B4A136008E0084A7B6852F8EB
S315020025B02320BB7822FA03F3064A136000BF0C37C6
S315020025C0BD465DF8047B704700E00140000800222A
S315020025D0ABAAAAAA7C2E002280B500AF144B042215
S315020025E01A77144B144A1A62124B012283F82420DA
S315020025F0104B052283F82620FFF79CFF0121962027
S3150200260000F086F90B4B002283F82420094B0A4A74
S315020026101A62FFF78FFF0121962000F079F9054B28
S31502002620052283F82620FFF785FF00BF80BD00BF85
S3150200263000C1014000E001403223123180B500AFF3
S315020026400E4B0F4A1A600D4B0E4A5A600B4B4FF453
S3150200265000429A60094B0C4ADA60084B4FF400427A
S315020026601A61064B094A5A61044B084ADA61034B5E
S31502002670064A1A62FFF75EFF00BF80BD000800220D
S31502002680006CDC0200127A00002D310100389C1C1D
S3150200269080B500AF2A4B4AF20352A3F8FA23FFF79A
S315020026A035FFFFF7CBFF264B162283F8502A244B21
S315020026B0092283F8A22000F097F8214B002283F822
S315020026C032201F4B93F83C30C3F3C003DBB2012B1D
S315020026D0F7D11B4B4FF43C521A85194B40F211129B
S315020026E0A3F84C20164B002283F82A20144B93F8A9
S315020026F03C30C3F34013DBB2012BF7D1FFF76CFF7B
S315020027000F4B012283F830200D4B012283F8522011
S315020027100B4B012283F853200523022209490A485A
S3150200272000F022F8052305220849094800F01CF8A2
S31502002730034B4FF42542A3F8FA2300BF80BD00BF26
S3150200274000E0014054E0014055E0014070E00140E4
S3150200275078E0014080B483B000AF786000BF0C37E8
S31502002760BD465DF8047B704780B485B000AFF86063
S31502002770B96011461A460B46FB711346BB71FB68DC
S315020027801B78DBB243F04003DAB2FB681A70FB68CF
S315020027901B78DBB2DB09DBB203F00103DBB2012BF0
S315020027A0F5D1BB68FA791A70BB7963F03F03DAB2E6
S315020027B0FB681A70FB681B78DBB223F04003DAB2BF
S315020027C0FB681A70FB681B78DBB2DB09DBB203F02D
S315020027D00103DBB2002BF5D100BF00BF1437BD46A3
S315020027E05DF8047B7047FFFF80B500AF184B93F886
S315020027F0003CDBB2002B07D1154B93F8013CC3F327
S315020028000103DBB2002B1CD0114B93F8003CDBB268
S31502002810002B0DD10E4B012283F8002C0121C8207A
S3150200282000F076F80A4B93F8003CDBB2012BF9D1A3
S31502002830074B002283F8012C054B002283F8002C5B
S3150200284004E04FF47A70FFF785FF00BF00BF80BD3A
S3150200285000E0014080B582B000AF2B4B002283F826
S3150200286028200121C82000F053F8274B002283F8C4
S315020028702420254B93F82430DBB2002BF9D1224ACF
S3150200288092F8243043F0020382F824301E4B93F868
S315020028902430C3F34003DBB2002BF7D11A4B0022DC
S315020028A083F82220184B93F82230DBB2002BF9D1A1
S315020028B00023FB7116E01449FB7903F1200211F89B
S315020028C0123023F0800301F812300F4AFB792033CD
S315020028D012F81330C3F3C013DBB2002BF5D1FB7928
S315020028E00133FB71FB79022BE5D9012000F062F975
S315020028F0064B002283F84C2C012000F00BF900BF96
S315020029000837BD4680BD00BF0020204000E00140E0
S315020029102DE9B04F8EB000AF78613961002179633D
S315020029207969386900FB01F1396335490968F96249
S315020029303448F96AB0FBF1F1B962396B00200C46F2
S3150200294005462046294650EA4F11B0EB040A61EBD0
S31502002950050B5046594650EA8F0182468B461AEBC2
S315020029600401B9604BEB0501F960D7E9020150EAAF
S31502002970CF01C7E90801D7E90801012907D23A6A56
S31502002980BB6AB2FBF3F3FB61FB697B632CE0386B3A
S31502002990B96AB0FBF1F13963396B00200A46034686
S315020029A01046194650EA4F11B0EB020861EB0309D3
S315020029B04046494650EA8F018046894618EB020195
S315020029C0396049EB03037B60D7E9002352EACF0360
S315020029D0C7E90823D7E90823012B02D23B6A7B63A6
S315020029E002E04FF0FF337B637B6B002B02D0786BE8
S315020029F000F00AF800BF3837BD46BDE8B08F00BF09
S31502002A007C2E002200CA9A3BA0F101000028FBD1CD
S31502002A10704700BF80B582B000AF0346FB71FB79F9
S31502002A20074A52F82330002B06D0FB79044A52F8A3
S31502002A302330FA791046984700BF0837BD4680BD55
S31502002A40B02C002280B582B000AF1D4B03F5C04307
S31502002A50B3F80031BB801A4B03F5C043B3F82031FB
S31502002A609AB2BB8813407B800023FB710EE07A8802
S31502002A70FB7922FA03F303F00103002B03D0FB795F
S31502002A801846FFF7C7FFFB790133FB71FB790F2B62
S31502002A90EDD90B4B03F5C0431A467B88A2F81031D9
S31502002AA0074B03F5C043B3F820319AB27B88134033
S31502002AB09BB2002BF4D100BF00BF0837BD4680BDD4
S31502002AC00060004080B483B000AF00237B6013E057
S31502002AD00E4A7B6832F81330002B0AD00B4A7B6809
S31502002AE032F813300A4A19467B6803F5C65342F890
S31502002AF023107B6801337B607B685F2BE8D900BFBC
S31502002B0000BF0C37BD465DF8047B7047C8990002CA
S31502002B100060004080B487B000AF0346FB7100231B
S31502002B207B61EFF31083FB60FB687B6101233B61F2
S31502002B303B6983F3108800BFFB791A4A32F81330D7
S31502002B409BB2002B09D0FB79164A32F8132092B2B7
S31502002B50013A91B2134A22F81310FB79114A32F85C
S31502002B6013309BB2002B11D10F4BB3F8FA339AB242
S31502002B700E4B13439AB2FB790D4931F81330DB43FE
S31502002B809BB2094913409BB2A1F8FA337B69BB6039
S31502002B90BB6883F3108800BF00BF1C37BD465DF8D3
S31502002BA0047B7047742E002200E0014000A5FFFF5F
S31502002BB09C9A000280B487B000AF0346FB710023E3
S31502002BC07B61EFF31083FB60FB687B6101233B6152
S31502002BD03B6983F3108800BFFB79164A32F813303B
S31502002BE09BB2002B0FD1144BB3F8FA339AB2FB798E
S31502002BF0124931F8133013439AB20F49104B13435B
S31502002C009BB2A1F8FA33FB790A4A32F8132092B240
S31502002C10013291B2074A22F813107B69BB60BB6886
S31502002C2083F3108800BF00BF1C37BD465DF8047BE6
S31502002C30704700BF742E002200E001409C9A0002F9
S31502002C4000A5FFFF80B500AF00F00CF8FDF71AFBF8
S31502002C5000BFFDE780B400AF00BE00BFBD465DF811
S31502002C60047B704780B584B000AF494B494A5A612C
S31502002C70BFF34F8F00BFBFF36F8F00BF444B4FF4BC
S31502002C807002C3F88820424B434A9A600020FDF73F
S31502002C90E5FAFFF7FDFC0120FDF7E0FA3E4B1B6863
S31502002CA0A3F580633B603B6883F30A8800BF3B4A17
S31502002CB03B4BD31A1A460021394806F0CBFC394A57
S31502002CC0394BD31A1A463949374806F0CBFC00F07D
S31502002CD0A9F800F0C3F8BFF34F8F00BFBFF36F8FA1
S31502002CE000BF2B4B0022C3F85022BFF34F8F00BF09
S31502002CF0BFF36F8F00BF00BF2D4A2E4BD31A9B1016
S31502002D007B600023FB6007E02A4AFB6852F8233007
S31502002D109847FB680133FB60FA687B689A42F3DBEB
S31502002D20FFF708FCFFF796FD0320FFF743FF00239A
S31502002D30BB6008E0204ABB680C33002122F823104E
S31502002D40BB680133BB60BB680F2BF3D90320FFF7C7
S31502002D50E1FE0320FFF72EFF184B00225A60174BA5
S31502002D6000229A60154B0022DA60144B00221A6187
S31502002D700320FFF7CFFE0220FDF770FAFFF7A2FE4F
S31502002D80002000F09BF800BF1037BD4680BD00BF93
S31502002D9000ED00E001020E000000000238300022C1
S31502002DA0082C0022AC00002200000022789E0002BD
S31502002DB0A8000022A4000022000D4040004020404E
S31502002DC080B586B000AFF860B9607A607968FA6853
S31502002DD0BB6841F007C800BFF3E80201E2E802015E
S31502002DE00FF007C0FA60BB60C7E9040100BF1837DD
S31502002DF0BD4680BDFFFFFFFF80B584B000AFF8601F
S31502002E00C7E90023BA69D7E90001FB6842F005C0A9
S31502002E10E3E802010FF005C0FB6000BF1037BD46B4
S31502002E2080BD00BF80B584B000AF094BFB60094B83
S31502002E30BB60094A074BD31ADB087B607A68B9681C
S31502002E40F868FFF7BDFF00BF1037BD4680BD00BF63
S31502002E5000000000809E0002809E000280B588B0BD
S31502002E6002AF114B7B61114B3B61114A0F4BD31AD7
S31502002E70DB08FB600F4BBB600F4A0E4BD31ADB0815
S31502002E807B60FA6839697869FFF79AFF7B68009375
S31502002E904FF000024FF00003B868FFF7ADFF00BF26
S31502002EA01837BD4680BD00BF0000002030A60002D4
S31502002EB030A60002000000200000002080B483B08B
S31502002EC000AF786000BF0C37BD465DF8047B7047E3
S31502002ED080B483B000AF786039607B683A681A6064
S31502002EE000BF0C37BD465DF8047B704780B483B0E3
S31502002EF000AF78600B46FB707B68FA781A7000BFE9
S31502002F000C37BD465DF8047B704780B483B000AFD2
S31502002F1078607B681B6818460C37BD465DF8047BF3
S31502002F207047FFFF80B582B000AF7860396010E06D
S31502002F3000BF0D48FFF7E9FF034603F00053002BDD
S31502002F40F7D07B685A1C7A601B7819460748FFF748
S31502002F50CDFF3B685A1E3A60002BE9DC00BF00BF7A
S31502002F600837BD4680BD00BF4883354004833540DF
S31502002F7080B500AF0D48FFF7C8FF034623F0805324
S31502002F8019460A48FFF7A4FF00210948FFF7A0FFE8
S31502002F9010210848FFF79CFF07490848FFF798FFEA
S31502002FA011210348FFF794FF00BF80BD0430204083
S31502002FB0088335400C83354010400080108335402D
S31502002FC080B483B000AF78607B6883F31188BFF367
S31502002FD06F8F00BF0C37BD465DF8047B704780B427
S31502002FE083B000AFEFF311837B607B6818460C3722
S31502002FF0BD465DF8047B704780B483B000AF1023F2
S315020030007B60EFF311833B607B6883F311883B6837
S3150200301018460C37BD465DF8047B704780B400AF96
S31502003020044B1B680133034A136000BFBD465DF8BB
S31502003030047B7047C82F002280B400AF044B1B6884
S31502003040013B034A136000BFBD465DF8047B70472F
S31502003050C82F002280B483B000AF786039603B6825
S315020030601B6913F1640F07DB3B681B6913F1640FDD
S3150200307002DA6FF0100327E03B680422DA613B684C
S315020030805B69002B01D100231EE03B685B69042BC0
S3150200309002D06FF0100317E03B681B6913F1650F4E
S315020030A008D013F1640F0BD13B689B697A68D26929
S315020030B01A6008E03B689B697A68126A1A6002E045
S315020030C06FF0100300E0002318460C37BD465DF88A
S315020030D0047B704780B485B000AF786039603B6886
S315020030E05B69042B02D06FF0100320E03B689B69FA
S315020030F01B68FB603B681B6913F1650F0CD013F16B
S31502003100640F0DD1FB68012B02D96FF010030EE09C
S315020031107B68FA68DA6106E07B68FA681A6202E09E
S315020031206FF0100303E03B680422DA6100231846BD
S315020031301437BD465DF8047B7047FFFF80B584B047
S3150200314000AF7860FFF76AFF7B685B69FB600F4B35
S315020031501A68FB681B69012101FA03F31946104636
S3150200316003F086F87B681B78083B012B03D8FB68C3
S3150200317000225A6104E0FB686FF038025A6100BF10
S31502003180FFF75AFF00BF1037BD4680BD802E0022D2
S3150200319080B588B002AF786039607B681B6901220E
S315020031A002FA03F33B613F4B1A683B69DB4319465C
S315020031B0104603F0E5F87B68DB69002B02D0012B91
S315020031C04BD04DE07B681B6837491846FDF72EFD4C
S315020031D0F860FB68002B02D06FF038035EE03B68B4
S315020031E01B69DAB2314B1A707B681B682F4A0021C1
S315020031F01846FDF799FDF860FB68002B02D06FF0C8
S3150200320038034BE07B681B681846FDF76DFBF860D8
S31502003210FB68002B02D06FF038033FE07B681B6827
S31502003220002200211846FDF7F1FDF860FB68002B2D
S3150200323002D06FF0380331E07B6818683B68996901
S315020032403B685B691A460023FDF78DFEF860FB6852
S31502003250002B08D06FF0380320E06FF008031DE062
S315020032606FF004031AE000BF0E4B186807F108035B
S315020032704FF4FA7200922022396903F0E5F8786178
S315020032807B69002B09DB7B685B697B617B69002BB1
S3150200329003DB3B685A693B68DA617B691846183773
S315020032A0BD4680BD802E0022902E00229C2E00223A
S315020032B080B588B002AF786039607B681B690122ED
S315020032C002FA03F33B613F4B1A683B69DB4319463B
S315020032D0104603F055F87B68DB69002B02D0012B00
S315020032E04BD04DE07B681B6837491846FDF79EFCBC
S315020032F0F860FB68002B02D06FF038035EE03B6893
S315020033001B69DAB2314B1A707B681B682F4A00219F
S315020033101846FDF709FDF860FB68002B02D06FF036
S3150200332038034BE07B681B681846FDF7DDFAF86048
S31502003330FB68002B02D06FF038033FE07B681B6806
S31502003340002200211846FDF761FDF860FB68002B9C
S3150200335002D06FF0380331E07B6818683B689969E0
S315020033603B685B691A460023FDF766FDF860FB6859
S31502003370002B08D06FF0380320E06FF008031DE041
S315020033806FF004031AE000BF0E4B186807F108033A
S315020033904FF4FA7200922022396903F055F87861E7
S315020033A07B69002B09DB7B685B697B617B69002B90
S315020033B003DB3B685A693B68DA617B691846183752
S315020033C0BD4680BD802E0022902E00229C2E002219
S315020033D080B586B000AFF860B9607A607B681B6919
S315020033E07B617B691B68002B02D16FF0380316E004
S315020033F07B69BA68DA607B695B687A69DA607B69DD
S315020034001A687B695B6819461046FDF70FFA386140
S315020034103B69002B01D1002301E06FF03803184607
S315020034201837BD4680BD80B485B000AFF860B9607C
S315020034307A60002318461437BD465DF8047B704750
S3150200344080B584B000AF786039603B681B69BB60A9
S315020034507B681B69002B05DB7968B868FFF798FE65
S31502003460F86004E07968B868FFF7F4FDF860FB6875
S3150200347018461037BD4680BD80B584B000AF78606F
S3150200348039603B681B69BB607B681B69002B05DBE7
S315020034907968B868FFF70CFFF86004E07968B868E5
S315020034A0FFF718FEF860FB6818461037BD4680BD68
S315020034B080B485B000AFF860B9607A606FF0080337
S315020034C018461437BD465DF8047B7047B0B596B012
S315020034D000AFF860B9607A60FB68022B02D96FF020
S315020034E010037BE0242001F0AFFA38653B6D002B18
S315020034F002D16FF0200371E03A49FB683A6D41F858
S315020035002320394802F004FE0346384A1360374B3B
S315020035101B68002B03DC354B1B687B655AE03B6D51
S315020035203B6100233B6200237B620023BB620123D3
S31502003530FB622F4B3B632F4B7B632F4BBB632F4BA4
S31502003540FB632F4B3B6407F1100304332D491846E6
S3150200355001F0F0FA2B4801F0DBFAF864FB68DBB203
S315020035606133D9B207F11402FB6C13440A461A708E
S31502003570FB6C013358333B44002203F8442C07F119
S31502003580440207F1480107F11003184605F06AFBE9
S3150200359078657B6D002B1CD11B4A7B6814461D4641
S315020035A00FCD0FC42B6823603B6DBA681A603B6D62
S315020035B0154A5A607B6C1A683B6D9A603B6DFA68D5
S315020035C01A61BA6C3B6D9A613B6D0022DA61002387
S315020035D004E000BF386D01F044FA7B6D1846583797
S315020035E0BD46B0BD842E002200000022802E00229D
S315020035F0D13300022734000241340002793400023A
S31502003600B1340002A49A0002A42E002280B400AFB4
S31502003610044B1B680133034A136000BFBD465DF8C5
S31502003620047B7047C82F002280B400AF044B1B688E
S31502003630013B034A136000BFBD465DF8047B704739
S31502003640C82F002280B483B000AF786039606FF073
S31502003650100318460C37BD465DF8047B704780B4EC
S3150200366083B000AF786039606FF0100318460C37EC
S31502003670BD465DF8047B704780B584B000AF7860C4
S31502003680FFF7C4FF7B685B68FB600F4B1A68FB6839
S315020036901B69012101FA03F31946104602F0E8FDFF
S315020036A07B689B78002B03D1FB6800229A6104E0B9
S315020036B0FB686FF038029A6100BFFFF7B5FF00BFE3
S315020036C01037BD4680BD00BFB82E002280B588B037
S315020036D002AF786039603B685B69002B04D13B68B6
S315020036E00122DA61002339E07B681B69012202FAB2
S315020036F003F33B611B4B1A683B69DB4319461046D1
S3150200370002F03EFE7B681B681846FEF7FEFB154B71
S31502003710186807F108034FF4FA72009220223969F9
S3150200372002F092FE78617B69002B16DB7B689B694F
S315020037307B617B69002B10DB7B6818683B681B6921
S315020037405BB207F10E021946FEF7F1FBFA893B68F6
S315020037509B691A603B680122DA617B691846183751
S31502003760BD4680BDB82E002280B483B000AF78601B
S3150200377039606FF0420318460C37BD465DF8047B8C
S315020037807047FFFF80B586B000AFF860B9607A6017
S315020037907B681B697B617B691B68002B02D16FF01A
S315020037A038031AE07B69BA685A617B691A687B69D1
S315020037B05B6819461046FEF719FB7B691A687B6936
S315020037C09B6819461046FEF76FFB7B691868002353
S315020037D07A690449FEF780FB002318461837BD466E
S315020037E080BD00BF7936000280B485B000AFF860B4
S315020037F0B9607A60002318461437BD465DF8047B2B
S31502003800704780B584B000AF786039603B681B6949
S31502003810BB60BB681B68002B02D16FF038030FE058
S315020038207B681B69002B05DB7968B868FFF74EFFDA
S31502003830F86004E07968B868FFF704FFF860FB688F
S3150200384018461037BD4680BD80B584B000AF78609B
S3150200385039603B681B69BB60BB681B68002B02D1E1
S315020038606FF038030FE07B681B69002B05DB796874
S31502003870B868FFF779FFF86004E07968B868FFF77F
S31502003880EEFEF860FB6818461037BD4680BD80B470
S3150200389085B000AFF860B9607A606FF00803184629
S315020038A01437BD465DF8047B7047FFFF80B596B0BE
S315020038B000AFF860B9607A603B60FB68022B02D900
S315020038C06FF0100373E0242001F0BEF838653B6DFB
S315020038D0002B02D16FF0200369E03749FB683A6D8D
S315020038E041F82320354802F013FC0346344A13609C
S315020038F0334B1B68002B03DC314B1B687B6552E0A4
S315020039003B6D3B6100233B6200237B620023BB626B
S315020039100123FB622B4B3B632B4B7B632B4BBB6322
S315020039202B4BFB632B4B3B6407F1100304332A49F1
S31502003930184601F0FFF8284801F0EAF8F864FB6837
S31502003940DBB26133D9B207F11402FB6C13440A46A7
S315020039501A70FB6C013358333B44002203F8442CA3
S3150200396007F1440207F1480107F11003184605F072
S3150200397079F978657B6D002B14D13B6DBA681A60B4
S315020039803B6D7A685A603B6D3A689A607B6C1A683E
S315020039903B6DDA603B6DFA681A61BA6C3B6DDA61AF
S315020039A0002304E000BF386D01F05BF87B6D18461A
S315020039B05837BD4680BD00BFBC2E00220C00002237
S315020039C0B82E002285370002E937000203380002CA
S315020039D0493800028F380002AC9A000280B483B0E4
S315020039E000AF786039607B683A681A6000BF0C37AE
S315020039F0BD465DF8047B704780B500AF074B0122D8
S31502003A001A60074B00221A604FF080510548FFF7F3
S31502003A10E5FF0020FFF7D4FA00BF80BDF81A0022A6
S31502003A20FC1A002204ED00E080B500AF4FF0805191
S31502003A300248FFF7D3FF00BF80BD00BF04ED00E0E0
S31502003A4030484FF0010101602F480168002909D171
S31502003A504FF0085282F30A88DFF8B0D02C4A82F37C
S31502003A600A8811E02DE9F00F00B50A6912F48052B6
S31502003A7005D01EF0100302D12DED108A08B4C1F84C
S31502003A8018D04FF0000202601F4C224D224E4FF01A
S31502003A90100282F31188D5F80080B8F1000F0DD11B
S31502003AA0D6F800C0BCF1000F08BF00F015FA4FF0BF
S31502003AB0000282F31188BFF36F8FE8E7C4F8008033
S31502003AC04FF0085282F30A88D8F818D0D8F81C208A
S31502003AD082F30A88D8F8100010F4805006D0009BB2
S31502003AE013F0100302D108BCBDEC108A5DF804EB9A
S31502003AF0BDE8F00F03484FF00001016081F3118821
S31502003B0070470000F81A0022FC1A0022C82F002271
S31502003B10C82E0022001B0022E42F002280B500AF2F
S31502003B20024800F00BFA00BFFDE700BFB49A00029C
S31502003B3080B584B000AF124B1B68BB60114B1B688B
S31502003B40002B04D00F4B1B689B68FB6001E000232F
S31502003B50FB60BB6803F08043002B09D00A4B1B684D
S31502003B607B607B68BA68F968084800F087FD05E063
S31502003B70BA68F968064800F081FD00BF00BFFDE79C
S31502003B802CED00E0FC1A002228ED00E0BC9A0002AF
S31502003B90F09A000280B500AF024800F0CFF900BFEC
S31502003BA0FDE700BF1C9B000280B500AF024800F093
S31502003BB0C5F900BFFDE700BF289B000280B500AF34
S31502003BC0024800F0BBF900BFFDE700BF349B0002CC
S31502003BD080B500AF024800F0B1F900BFFDE700BFB3
S31502003BE0449B000280B500AF024800F0A7F900BF6F
S31502003BF0FDE700BF4C9B000280B400AF044B1B687C
S31502003C000133034A136000BFBD465DF8047B70476B
S31502003C10C82F002280B400AF044B1B68013B034A45
S31502003C20136000BFBD465DF8047B7047C82F0022B3
S31502003C3080B500AFFFF7E0FF04F052FCFFF7EAFFA2
S31502003C4000BF80BD80B400AF104A114B9A60114A82
S31502003C500F4BDA60104A0E4B1A61104A0C4B5A612E
S31502003C600F4A0B4B9A610F4A094BDA620E4A084B0E
S31502003C701A630E4A064B9A630D4A054BDA63002312
S31502003C801846BD465DF8047B704700BF1D3B000227
S31502003C9000010022313B0002953B0002A93B0002D3
S31502003CA0BD3B0002D13B0002E53B0002413A000265
S31502003CB0313C000280B483B000AF786039607B6823
S31502003CC03A681A6000BF0C37BD465DF8047B704740
S31502003CD080B483B000AF78607B681B6818460C37E7
S31502003CE0BD465DF8047B704780B584B000AFFFF730
S31502003CF083F900F0B1F82F48FFF7EAFF03461A46A8
S31502003D002D4B1A602C4B1B68FB602C4BBB600023AF
S31502003D107B600AE0FA68131DFB60BB68191DB96077
S31502003D2012681A607B6801337B607B686F2BF1DD5A
S31502003D30224B19461F48FFF7BDFF214B1B683B600C
S31502003D403B6823F440733B603B689BB21C4A43F0DA
S31502003D50BF6343F4003313604FF4E0211948FFF7C1
S31502003D60A9FF00211848FFF7A5FF18491848FFF7D1
S31502003D70A1FF184B4FF008521A60164B1B681A46E1
S31502003D80154B9A4202D2134B134A1A60134B144A2A
S31502003D901A60104B1B68134A1360104B1B68124AB9
S31502003DA013604FF0085383F30A8804F0D9FD00BF6D
S31502003DB0FDE700BF08ED00E0CC2F00220001002243
S31502003DC00CED00E024ED00E01CED00E00000F01038
S31502003DD020ED00E0D02F002238340022D42F00221A
S31502003DE000000E22D82F0022DC2F002280B400AF62
S31502003DF000231846BD465DF8047B704780B582B045
S31502003E0000AF00237B600B4A0B490020FFF75EFBE5
S31502003E1078607B68002B01DA7B6807E0074B084A6B
S31502003E2008490020FFF742FD78607B68184608378C
S31502003E30BD4680BD289700022C2C00226097000206
S31502003E40489700028C2C002280B400AF002318464B
S31502003E50BD465DF8047B704780B400AF00BFBD4627
S31502003E605DF8047B704780B500AFFFF7C5F800BF69
S31502003E70FDE7FFFF80B582B000AF78607B68B3F1E3
S31502003E80FF3F0BD07B68002B1ADA7B6813F1030F16
S31502003E9010D07B6813F1020F06D011E00B4800F038
S31502003EA04DF86FF008030DE0094800F047F86FF08F
S31502003EB0080307E0074800F041F86FF0080301E045
S31502003EC06FF0100318460837BD4680BD809B00027E
S31502003ED0A09B0002BC9B000280B400AF00BFBD469F
S31502003EE05DF8047B704780B500AFFFF741F800BF6D
S31502003EF080BDFFFF80B584B000AF78607B68DBB21F
S31502003F00FB72FFF779F80346FB60FB7A0A2B03D1B3
S31502003F1001210948FFF706F807F10B0301211846AC
S31502003F20FFF700F8FB681846FFF74AF80023184621
S31502003F301037BD4680BD00BFD39B000280B584B05A
S31502003F4000AF78607B68FB60FFF756F80346BB60FC
S31502003F5006E0FB685A1CFA601B781846FFF7CAFF90
S31502003F60FB681B78002BF4D1BB681846FFF728F8CC
S31502003F70002318461037BD4680BDFFFF80B487B0C8
S31502003F8000AFF860B9601346FB71FB799B10DBB298
S31502003F9003F01003FB75FB7903F03F03FB7114E09A
S31502003FA0FA79BB68B3FBF2F101FB02F29A1AFB7DC6
S31502003FB01344FA68013AFA600E4AD25CFB681A7038
S31502003FC0FB79BA68B2FBF3F3BB60FB79BA689A4233
S31502003FD0E6D2FA7DBB681344FA68013AFA60054AEA
S31502003FE0D25CFB681A70FB6818461C37BD465DF842
S31502003FF0047B7047E49B000280B590B000AFF86086
S31502004000B9607A603B6000233B63F1E297F82730A0
S31502004010252B07D03B6B002B40F0E9827B68013BE6
S315020040203B63E4E23B6B002B09D07A683B6BD31A05
S31502004030591EFB68BA68386B984700233B63002316
S3150200404087F825307B685A1C7A601B7887F82730F8
S3150200405097F82730203B102B48D801A252F823F0BC
S31502004060C1400002ED400002ED400002CF400002D6
S31502004070ED400002ED400002ED400002ED4000027C
S31502004080ED400002ED400002ED400002B3400002A6
S31502004090ED400002A5400002ED400002ED400002A4
S315020040A0DD40000297F8253043F0010387F82530FA
S315020040B01BE097F8253043F0020387F8253014E019
S315020040C097F8253043F0040387F825300DE097F87A
S315020040D0253043F0080387F8253006E097F82530A7
S315020040E043F0100387F8253000BFABE700BF97F80F
S315020040F027302A2B19D13B681A1D3A601B687B8729
S31502004100B7F93A30002B09DA7B8F5B429BB27B8789
S3150200411097F8253043F0010387F825307B685A1C4F
S315020041207A601B7887F827301EE000237B8713E02E
S315020041307B8F1A46920013445B009AB297F8273097
S315020041409BB213449BB2303B9BB27B877B685A1C63
S315020041507A601B7887F8273097F827302F2B03D9F8
S3150200416097F82730392BE3D94FF6FF733B8797F839
S3150200417027302E2B40D17B685A1C7A601B7887F831
S31502004180273097F827302A2B11D13B681A1D3A603F
S315020041901B683B87B7F93830002B01DA00233B87CF
S315020041A07B685A1C7A601B7887F827301EE000234A
S315020041B03B8713E03B8F1A46920013445B009AB288
S315020041C097F827309BB213449BB2303B9BB23B8796
S315020041D07B685A1C7A601B7887F8273097F8273055
S315020041E02F2B03D997F82730392BE3D997F82530A7
S315020041F023F0100387F82530002387F8243097F838
S315020042002730682B03D097F827306C2B09D197F803
S31502004210273087F824307B685A1C7A601B7887F827
S3150200422027300A2387F826300023FB7407F114038C
S315020042300E33BB6297F82730782B00F34D81642B3F
S315020042400BDA632B00F03581632B00F34581002BDB
S3150200425000F03E81582B22D03EE1643B012202FA55
S3150200426003F39F4A1A40002A14BF01220022D2B247
S31502004270002A14D103F40042002A14BF01220022AC
S31502004280D2B2002A40F0F18003F48053002B14BF0F
S3150200429001230023DBB2002B40F0CF801CE197F80C
S315020042A024306C2B05D13B681A1D3A601B68FB63F0
S315020042B016E03B681A1D3A601B68FB6397F82430C8
S315020042C0682B0DD197F82730692B03D097F8273042
S315020042D0642B02D1FB6B1BB201E0FB6B9BB2FB634F
S315020042E097F82730583B202B00F2948001A252F80F
S315020042F023F000BFBB43000215440002154400022E
S315020043001544000215440002154400021544000239
S315020043101544000215440002154400021544000229
S3150200432015440002794300021544000215440002B6
S3150200433015440002154400027943000215440002A6
S3150200434015440002154400021544000215440002F9
S31502004350CF43000215440002154400021544000230
S3150200436015440002154400021544000215440002D9
S3150200437015440002C5430002FB6B002B05DAFB6BFA
S315020043805B42FB632D23FB7410E097F8253003F0A4
S315020043900203002B02D02B23FB7407E097F825308B
S315020043A003F00403002B32D02023FB74B7F93A3012
S315020043B09BB2013B9BB27B872CE097F826304033B9
S315020043C087F8263097F82630083387F8263097F88C
S315020043D02630023B87F8263097F8253003F008038B
S315020043E0002B16D0FB6B002B13D07A8F97F8263052
S315020043F0082B01D1012300E00223D31A9BB27B874B
S3150200440097F8263063F07F0387F8263001E000BF75
S3150200441000E000BFFB6B002B03D1B7F93830002B4D
S3150200442008D097F826301A46F96BB86AFFF7A6FD48
S31502004430034600E0BB6AFB6255E03B681A1D3A6020
S315020044401B68FB63FB6B002B06D0902387F8263094
S315020044507B8F023B9BB27B8797F826301A46F96B15
S31502004460B86AFFF78BFDF8623DE03B681A1D3A60B9
S315020044701B68FB62FB6ABB62B7F93830002B0BDAAA
S3150200448002E0BB6A0133BB62BB6A1B78002BF8D120
S3150200449028E0BB6A0133BB623B8F013B9BB23B8781
S315020044A0B7F93830002B1DDBBB6A1B78002BF0D125
S315020044B018E0BB6AFB623B681A1D3A601A68FB6A1F
S315020044C0013BFB62D2B2FB6A1A7000233B870AE009
S315020044D07B68013B7B608BE07B68013B3B6387E04B
S315020044E02108120000BFBA6AFB6AD31AFB863A8F0A
S315020044F0FB8ED31A9BB23B87B7F93830002B04DD0B
S31502004500FA8E3B8F13449BB2FB867A8FFB8ED31AAD
S315020045109BB27B8797F8253003F01103002B0DD150
S3150200452004E0FB68BA6801213E4898477B8F013B4D
S315020045309BB27B87B7F93A30002BF2DAFB7C002B71
S3150200454005D007F11300FB68BA680121984797F96D
S315020045502630002B17DAFB68BA68012132489847E1
S3150200456097F8263003F01003002B0CD097F826306C
S3150200457003F04003002B01D02C4800E02C48FB68D6
S31502004580BA68012198473B8FFB86B7F93630002B74
S315020045900FDC97F8253003F01103102B09D17B8F1E
S315020045A0FB8600237B8704E0FB68BA6801211E486C
S315020045B09847FB8E013B9BB2FB86B7F93630002B40
S315020045C0F2DABA6AFB6AD11AFB68BA68F86A9847DD
S315020045D004E0FB68BA680121124898477B8F013BC9
S315020045E09BB27B87B7F93A30002BF2DA00E000BFC4
S315020045F07B685A1C7A601B7887F8273097F8273031
S31502004600002B7FF403AD3B6B002B07D07A683B6B24
S31502004610D31A591EFB68BA68386B984700BF4037F1
S31502004620BD4680BDD49B0002D89B0002DC9B0002E3
S31502004630E09B000280B584B000AFF860B9607A6092
S315020046407B68B3F900309AB2BB689BB213449BB243
S315020046501AB27B681A8006E0FB685A1CFA601B785D
S315020046601846FFF747FCBB68013BBB60BB68002BE3
S31502004670F2DA00BF00BF1037BD4680BD0FB480B569
S3150200468082B000AF00237B8007F114037B60B91C64
S315020046907B683A690548FFF7AFFCB7F9023018465E
S315020046A00837BD46BDE8804004B070473546000273
S315020046B080B584B000AF7860FEF79EFCF8607B6838
S315020046C01B685A1C7B681A607B681B68BB60F868AB
S315020046D0FEF776FCBB6818461037BD4680BD80B52E
S315020046E084B000AF7860FEF787FCF8607B681B68D1
S315020046F0591E7A681160BB60F868FEF761FCBB68F8
S3150200470018461037BD4680BD80B582B000AF7860CE
S315020047107868FFF7CDFF0346002B07DD7B685B68F1
S315020047204FF0FF320121184602F086FD00BF08371E
S31502004730BD4680BD80B582B000AF78607868FFF76D
S31502004740CEFF0346002B05DD7B685B680121184618
S3150200475002F09AFC00BF0837BD4680BD80B58AB01C
S3150200476000AF786039600123FB6000233B610123BF
S315020047707B6107F108037B62164B3B620023FB61F8
S315020047800AE03A6A531C3B627B6A591C79621278C8
S315020047901A70FB690133FB61FB69032BF1DD07F13B
S315020047A00803184602F0A6FBB861BB69002B01DAC2
S315020047B0BB690AE07B68BA695A607B684FF0FF32D0
S315020047C01A607B683A689A60002318462837BD4605
S315020047D080BD00BF049C000280B582B000AF786045
S315020047E07B685B68002B04DD7B685B68184602F019
S315020047F0FBFB7B6800225A6000BF0837BD4680BDBE
S3150200480080B584B000AF7860FEF7F6FBF8607B688F
S315020048101B685A1C7B681A60F868FEF7D1FB00BF5A
S315020048201037BD4680BD80B584B000AF7860FEF714
S31502004830E3FBF8607B681B685A1E7B681A60F8689F
S31502004840FEF7BEFB00BF1037BD4680BD80B586B001
S3150200485000AF7860396001223B6802FA03F37B619C
S31502004860FEF7CAFB38617B681B687A691340FB60F6
S315020048707B681A687B691A437B681A603869FEF797
S315020048809FFBFB6818461837BD4680BD80B584B0CD
S3150200489000AF78603960FEF7AFFBF8607B681A6894
S315020048A001213B6801FA03F3DB431A407B681A6075
S315020048B0F868FEF785FB00BF1037BD4680BD80B5A0
S315020048C08AB002AFF860B9607A600122BB6802FA68
S315020048D003F3BB61FB6804331846FFF791FFFB68DD
S315020048E0B9681846FFF7B2FF0346002B02D1002330
S315020048F0FB6110E0FB68986807F114027B6800937D
S3150200490013462122B96901F09FFDF861FB69002B6C
S3150200491000DBE4E700BFFB6804331846FFF783FFBA
S31502004920FB6918462037BD4680BD80B582B000AF10
S31502004930786039604FF0FF3239687868FFF7BFFF59
S31502004940034618460837BD4680BD80B584B000AF21
S315020049507860396001223B6802FA03F3FB607B68E8
S3150200496039681846FFF792FF7B685B68002B07D011
S315020049707B689B68F968184601F07AFC034600E0FA
S315020049800023BB60BB6818461037BD4680BDFFFFDB
S3150200499080B58AB000AF7860396009233B61002395
S315020049A07B6107F10C037B62174B3B620023FB61C1
S315020049B00AE03A6A531C3B627B6A591C7962127896
S315020049C01A70FB690133FB61FB69032BF1DD07F109
S315020049D00C03184601F09CFBB8617B68BA699A60C1
S315020049E0BB69002B01DABB6909E07B6800225A60C9
S315020049F07B6800221A607B683A68DA6000231846F0
S31502004A002837BD4680BD00BF0C9C000280B584B02D
S31502004A1000AF78607B689B68002B02DC6FF01003A6
S31502004A200EE07B689B68184601F0D2FBF860FB68D3
S31502004A30002B01DAFB6803E07B6800229A60002300
S31502004A4018461037BD4680BD80B582B000AF78608B
S31502004A507B68184601F06EFF034618460837BD46C6
S31502004A6080BD80B582B000AF7860786801F0B8FF8B
S31502004A7000BF0837BD4680BDF0B484B000AFF86011
S31502004A80B9607A60FC68BB68DDB27B68072B12DC12
S31502004A9003E023465C1C2A461A707B685A1E7A601B
S31502004AA0002BF6DCFB682EE07B68013B7B6023462D
S31502004AB05C1C2A461A70234603F00303002BF3D12B
S31502004AC026462A4613461B021A442B461B041A4341
S31502004AD02B461B0642EA030405E033461E1D1C60F4
S31502004AE07B68043B7B607B68032BF6DC344606E07E
S31502004AF023465C1C2A461A707B68013B7B607B68F6
S31502004B00002BF5D1FB6818461037BD46F0BC70473E
S31502004B1090B482B000AF78607C6800E0013494F90A
S31502004B200030002BFAD17B68E31A18460837BD46D7
S31502004B3090BC704790B482B000AF786039607C68F0
S31502004B4023465C1C3A6892F900201A703B685A1C8C
S31502004B503A6093F90030002BF2D17B681846083789
S31502004B60BD4690BC704790B484B000AFF860B9609F
S31502004B707A60FC687B685A1E7A60002B01DCFB684F
S31502004B8017E023465C1CBA6892F900201A70BB68CB
S31502004B905A1CBA6093F90030002BEBD103E023468E
S31502004BA05C1C00221A707B685A1E7A60002BF6DCA7
S31502004BB0FB6818461037BD4690BC704790B482B069
S31502004BC000AF7860396011E07B685A1C7A6093F90D
S31502004BD00030DBB219463B685A1C3A6093F9003042
S31502004BE0DBB2CC1A002C01D023460EE07B6893F987
S31502004BF00030002BE8D17B6893F90030DBB21A460D
S31502004C003B6893F90030DBB2D31A18460837BD4623
S31502004C1090BC704780B483B000AF78607B687A68D6
S31502004C201A607B687A685A6000BF0C37BD465DF829
S31502004C30047B704780B483B000AF78607B681B68E2
S31502004C407A689A420CBF01230023DBB218460C375E
S31502004C50BD465DF8047B704780B483B000AF7860D0
S31502004C6039603B685A687B685A607B683A681A60A2
S31502004C703B685B687A681A603B687A685A6000BF6C
S31502004C800C37BD465DF8047B704780B483B000AF35
S31502004C9078607B681B687A689A4209D07B685B6891
S31502004CA07A6812681A607B681B687A6852685A606A
S31502004CB000BF0C37BD465DF8047B704780B485B0F3
S31502004CC000AF78607B681B687A689A4201D100233C
S31502004CD00BE07B681B68FB60FB681A687B681A60DE
S31502004CE0FB681B687A685A60FB6818461437BD462B
S31502004CF05DF8047B7047FFFF80B584B000AF786033
S31502004D00114B1B68FB6015E0FB68BB60BB681A7A37
S31502004D107B681B789A420AD1BB68083379681846C1
S31502004D20FFF74CFF0346002B01D1BB6807E0FB6887
S31502004D301B68FB60FB68044A9342E5D100231846D0
S31502004D401037BD4680BD00BF800A002280B584B000
S31502004D5000AF78600F48FFF7B1FFF860FB68002BE1
S31502004D6001D1002311E0FB6808330922796818464D
S31502004D70FFF7F9FEFB6840331846FFF74BFFFB6867
S31502004D8005491846FFF768FFFB6818461037BD4607
S31502004D9080BD00BF880A0022800A002280B582B048
S31502004DA000AF78607B681846FFF76FFF7B6805499E
S31502004DB01846FFF751FF7B6800221A7200BF0837B8
S31502004DC0BD4680BD880A0022B0B588B000AFF86043
S31502004DD0B9607A6001214F48FFF7A7FDF868FFF72F
S31502004DE097FEB861BB69002B02D0BB69082B03DDB5
S31502004DF06FF010037B6184E0BB68002B27D0BB6891
S31502004E00DB68002B03DBBB68DB68FF2B03DD6FF07F
S31502004E1010037B6175E0BB68DB68002B02DDBB69B2
S31502004E200133BB61BB68DB680A2B02DDBB69013358
S31502004E30BB61BB68DB68642B02DDBB690133BB6106
S31502004E40BB69082B03DD6FF010037B6159E000217B
S31502004E503048FFF76AFDF868FFF74EFFF861FB6915
S31502004E60002B11D1BB68002B03D16FF029037B61A4
S31502004E7043E0F868FFF76AFFF861FB69002B03D18C
S31502004E806FF021037B6138E0BB68002B14D0FB690D
S31502004E90BA6803F1140415460FCD0FC40FCD0FC423
S31502004EA095E8070084E807007B68002B13D07B682F
S31502004EB0194A12681A600EE0FB6940331846FFF77A
S31502004EC0B9FE0346002B03D16FF040037B6114E069
S31502004ED0F869FFF763FF00210E48FFF736FD01214F
S31502004EE00C48FFF732FDFB690C4A9B1ADB100C4A91
S31502004EF002FB03F301331B0208E000210548FFF71A
S31502004F0024FD01210348FFF720FD7B69184620375F
S31502004F10BD46B0BD2C0800223C08002240080022F3
S31502004F20398EE33880B485B000AF786039600DE021
S31502004F30FB7A2F2B02D9FB7A392B0ED97B685A1CA6
S31502004F407A60FA7A1A703B6801333B603B681B78D9
S31502004F50FB72FB7A002BEBD100E000BF7B680022DC
S31502004F601A700023FB60FB7A002B16D00CE0FA685D
S31502004F7013469B0013445B001A46FB7A303B1344EC
S31502004F80FB603B6801333B603B681B78FB72FB7A34
S31502004F90002BECD1FB680133FB60FB681846143723
S31502004FA0BD465DF8047B704780B582B000AF08232A
S31502004FB03B600F48FFF72EFE0E48FFF72BFE0E4B07
S31502004FC07B600AE07B680B491846FFF745FE7B6863
S31502004FD000221A727B6848337B603B685A1E3A602D
S31502004FE0002BEFDC002318460837BD4680BD00BF04
S31502004FF0800A0022880A00224008002280B483B078
S3150200500000AF00237B60054A7B6813607B68184605
S315020050100C37BD465DF8047B704700BF3C08002292
S3150200502080B582B000AF16491648FFF7B1FC78602A
S315020050307B68002B15DBFFF7B7FF78607B68002BD8
S3150200504011DB00F05FFF78607B68002B0DDBFFF75A
S31502005050D5FF78607B68002B09DB00F0FFFE00239A
S3150200506009E000BF04E000BF02E000BF00E000BFAD
S3150200507000F016F87B6818460837BD4680BD00BFAB
S31502005080149C00022C08002280B483B000AF0023D7
S315020050907B607B6818460C37BD465DF8047B70471B
S315020050A080B582B000AF00F0EFFEFFF7EDFF78604B
S315020050B000F072FF78600448FFF7A8FC7B68184688
S315020050C00837BD4680BD00BF2C08002280B483B0DD
S315020050D000AF78607B687A681A607B687A685A6083
S315020050E000BF0C37BD465DF8047B704780B483B0C1
S315020050F000AF78607B681B687A689A420CBF01230E
S315020051000023DBB218460C37BD465DF8047B7047B8
S3150200511080B483B000AF786039603B685A687B68B8
S315020051205A607B683A681A603B685B687A681A60FC
S315020051303B687A685A6000BF0C37BD465DF8047B4F
S31502005140704780B483B000AF78607B681B687A686A
S315020051509A4209D07B685B687A6812681A607B6833
S315020051601B687A6852685A6000BF0C37BD465DF804
S31502005170047B704780B485B000AF78607B681B689B
S315020051807A689A4201D100230BE07B681B68FB60B8
S31502005190FB681A687B681A60FB681B687A685A6043
S315020051A0FB6818461437BD465DF8047B7047FFFF5F
S315020051B080B500AF00210848FFF7B7FB074B1B6815
S315020051C0002B02D10548FFF781FF00210248FFF7B5
S315020051D0BCFB024B184680BD2C080022E0110022BF
S315020051E080B487B000AFF860B9607A60FB68002BC4
S315020051F002DDFB68102B02DD6FF011031EE0FB6877
S3150200520003F18063013B9B010F4A13447B617B6977
S315020052101B69002B02D16FF011030FE0BB68002B54
S3150200522008D07B69DA69BB681340002B02D16FF0A4
S315020052301A0303E07B687A691A60002318461C3752
S31502005240BD465DF8047B7047900A002280B582B0A5
S3150200525000AF786039607B681846FFF772FF7B689B
S3150200526008331846FFF76DFF3B68002B04D07B68B6
S3150200527005491846FFF74CFF7B6800221A6100BFFA
S315020052800837BD4680BD00BF900E002280B582B0B1
S3150200529000AF78607B681846FFF753FF7B680549C5
S315020052A01846FFF735FF7B6800229A6000BF083771
S315020052B0BD4680BDD811002280B485B000AF7860AB
S315020052C039607B681B6CFB6009E0FB689B693A6886
S315020052D09A4201D1012308E0FB681B68FB607B68E8
S315020052E04033FA689A42F0D1002318461437BD4675
S315020052F05DF8047B7047FFFF80B586B000AFF860AB
S31502005300B9607A603B601B48FFF734FF78617B69BE
S31502005310002B01D1002328E07A69FB684033194645
S315020053201046FFF7F5FE7B6908333A6811461846C0
S31502005330FFF7EEFE7B69FA685A617B69BA689A6181
S315020053407B697A68DA617B6920331846FFF7BEFE0D
S315020053507B6900221A857B6900221A637B69002217
S315020053605A637B6900221A617B6918461837BD4663
S3150200537080BD00BF900E002280B48BB000AFF860F3
S31502005380B9607A607B6803F00303002B02D16FF0E9
S31502005390100372E000237B617B69BB61BB69FB6121
S315020053A0FB693B62FB681B6C7B6234E07B6A3B6198
S315020053B0BB68002B08D03B699B69002B04D03B6974
S315020053C09B69BA689A4223D13B69DB6903F0010300
S315020053D0002B02D03B6A01333B623B69DB6903F077
S315020053E00203002B02D0FB690133FB613B69DB69D7
S315020053F003F4A063002B02D0BB690133BB613B6996
S31502005400DB6903F44073002B02D07B6901337B61B5
S315020054107B6A1B687B62FB6840337A6A9A42C5D113
S315020054207B6803F4A063002B05D03B6A002B02DDE8
S315020054306FF0400321E07B6803F44073002B05D034
S31502005440FB69002B02DD6FF0400316E07B6803F078
S315020054500103002B05D0BB69002B02DD6FF0400370
S315020054600BE07B6803F00203002B05D07B69002B5F
S3150200547002DD6FF0400300E0002318462C37BD46DC
S315020054805DF8047B7047FFFF80B58EB000AF786091
S31502005490396007F10C0379681846FFF743FDF86295
S315020054A0FFF786FEB862BB6A002B03D16FF01803C2
S315020054B03B63ABE000215848FFF737FA07F10C03CC
S315020054C01846FFF719FC78627B6A002B04D07B6AC8
S315020054D01B6AFA6A9A4203DD6FF029033B6391E085
S315020054E03A68F96A786AFFF747FF38633B6B002B25
S315020054F0C0F287807B6A9B6A7B637B6A5B693B62DD
